:020000040800F2
:1000000000040020C1010008018F0008018F0008D2
:10001000414F0008018F0008018F0008018F000880
:10002000018F0008018F0008018F000821B000082F
:10003000018F0008018F0008018F0008C106010828
:10004000018F0008A1DC000831DE000881DE000815
:10005000018F0008018F0008E1D9000831DA00089B
:1000600081DA0008D1DA000821DB000821CF00087E
:1000700071CF0008C1CF000811D0000861D000087E
:10008000B1D0000801D1000851D8000821E00008D3
:1000900091E0000841E10008F1E1000871DB00088F
:1000A000018F0008018F000871010108018F00080D
:1000B00081020108C102010801030108B1EF000833
:1000C000F1F00008018F0008018F0008018F00087F
:1000D000018F0008018F0008018F000881070108C7
:1000E00001DC0008F1DC000841DD0008018F000898
:1000F000018F0008018F0008018F000851D100080E
:10010000018F000881E3000841030108018F000806
:10011000018F0008018F000831010108018F0008DC
:10012000A1D10008F1D1000841D2000891D2000805
:10013000E1D20008018F000891DD0008018F00085E
:10014000018F0008018F0008018F0008C1FB000823
:1001500031D3000881D30008D1D30008018F0008F3
:10016000018F0008018F0008018F0008018F00082F
:10017000E1DD0008018F0008A1340008018F0008AC
:10018000018F0008018F0008018F0008018F00080F
:10019000018F0008018F0008018F0008018F0008FF
:1001A000018F0008018F0008018F0008018F0008EF
:1001B000018F0008018F0008018F0008018F0008DF
:1001C00072B62E4880F3098840F20000CCF200009D
:1001D0004EF63471CEF20001086040F20000C0F229
:1001E000F0004EF68851CEF2000108604FF000009A
:1001F000E1EE100A4EF63C71CEF2000108600620D6
:1002000080F31488BFF36F8F10F0AAFB4FF05530C6
:100210001B491C4A91423CBF41F8040BFAE71A49BA
:10022000164A91423CBF41F8040BFAE71749184AB5
:10023000184B9A423EBF51F8040B42F8040BF8E702
:1002400000201549154A91423CBF41F8040BFAE7DA
:1002500008F03EFE124C134DAC4203DA54F8041B76
:100260008847F9E702F064F80F4C104DAC4203DA0E
:1002700054F8041B8847F9E708F03ABE000800204C
:100280000000002000040020000400200892010863
:10029000000800202C18002030180020C07E00200C
:1002A000C0010008C0010008C0010008C00100082A
:1002B0002DE9F04F2DED108AC1F80CD0D0F80CD0FC
:1002C000BDEC108ABDE8F08F08F05AFF09F068FF16
:1002D000002383F311882846A047002009F000FD81
:1002E00009F046FF08F02CFF09F022FB08F048FF58
:1002F00009F056FF00DFFEE70000000000000000EC
:100300002DE9F843544B80461A68544882422DED3B
:10031000028B1BD052490B68DA0405D40A6842F4F8
:1003200080530B60012000E000204E4A4E491160CE
:1003300013684A4A934208D147490B6030B1484894
:10034000036823F48052026000E0FEE798ED018A22
:10035000B5EE408A0021F1EE10FAC8F81C10C8F87A
:100360001810C8F81410C8F81010C8F82810C8F8E9
:100370002410C8F8201029D0DFED3C7A28EE270A97
:1003800010EE100A01F038F8044618EE100A0D4677
:1003900001F032F80646B8F800000F4601F01AF8EE
:1003A0002BA3D3E9002301F0ADF902460B463046FA
:1003B000394600F0C3FE02460B462046294601F0AE
:1003C000A1F901F0B5FAA8F82C0001E0A8F82C106A
:1003D00098ED028AB5EE408AF1EE10FA26D0B8F810
:1003E00000904FEA092000F0F5FF044618EE100ACD
:1003F0000D4601F001F816A3D3E9002301F058F8E7
:10040000064648460F4600F0E5FF02460B463046DA
:10041000394600F093FE02460B462046294601F07D
:1004200071F901F085FAA8F82E0002E00020A8F882
:100430002E00B8F800204FF47A73B2FBF3F1A8F85D
:100440003010BDEC028BBDE8F88300BFAFF3008035
:100450001F85EB51B81E194030180020CDB5E8B506
:100460003038024000300240C2A507F4000080434B
:100470002DE9F04F9BB083461992A94A1891A948DB
:100480001168814200D0FEE79E6AB3F80CC09F69F4
:100490009A8DD98D039603261C6A5D6A059706928C
:1004A00006FB0CF74FEA8C0206264FEA4C000B9134
:1004B0000E97052106FB0CF70F9207220294049574
:1004C0000D90119701FB0CF04FEACC0602FB0CF1EA
:1004D00000271D695C69D3F81CA010901291179633
:1004E0000197188EDDF80490814580F20A818E48CC
:1004F0009BF800601BF80C7010F80690C25DA144D8
:100500008419511994F8008194F8002201EB4808ED
:10051000CDF81C80DDF834801BF80860855DC719B4
:10052000A9180E9A97F800411BF8022097F800725C
:1005300001EB4405815C0895CC1981190F9E91F857
:10054000008191F8007204EB48081BF80640CDF8D2
:1005500024808218055D92F8006192F80022E91962
:1005600001EB460505EB0807DDF8408015971BF801
:1005700008700A950419C15D94F8005194F800427E
:10058000DDF81C808E1806EB4501119D089A1BF8BA
:1005900005508E18C719425D1696161997F8002156
:1005A00006EB42029044CDF85080129C97F80072FE
:1005B0001BF804604519845DE41995F8007195F8FD
:1005C0000052801904EB47044FF01C0804EB0907A4
:1005D00090F80061139708FB09AADDF81C800C94C1
:1005E0000AEB0209152705EB460490F8005207FBB9
:1005F0000890099FDDF820900A2606FB070A0F27BE
:1006000007FB09A04FF00308DDF8289008FB010064
:100610004FF0060A0AFB0900009015984FF03009C8
:1006200009FB00FADDF858902E2000FB09A0824655
:100630000598824413984FF0240909FB00AA1498E6
:100640004FF02A0909FB00AA0898DDF8249008FB5E
:1006500000F8062000FB0988DDF81C9008EB090073
:1006600007FB01010A9F0C98DDF8009006FB0718B4
:100670001C2606FB008115270B9807FB021205922A
:10068000A9F5003868B1029E049FCDF8108006EBF2
:100690000801CE1B46434FF4807296FBF2F00290A5
:1006A0008046069961B1039E08FB01F8C1F5807789
:1006B00006FB07894FF4807299FBF2F003908046A5
:1006C000199901FB08F7002F02DD0837381103E004
:1006D000083F102697FBF6F047F6BC72019E1349BF
:1006E000189FDDF85C809042A8BF1046DA897243FB
:1006F0008842A8BF0146013627F81210C34401966C
:10070000EFE61D615C61029D059C1D629C61039D7D
:10071000049CC3F81CA05C629D621BB0BDE8F08F16
:1007200030180020CDB5E8B5000800204480FFFF58
:100730002DE9F04FA1B0C74C1F92C74A1E91116816
:10074000A14200D0FEE79F6A9A69998DDC8D0497DB
:100750009F89069207910F940322052106241D6AA2
:100760005E6A03957A4379437C43129214911594FF
:10077000072209210A24794305964FEA47084FEAE0
:1007800087097A434FEAC70A7C431E695D69D3F83B
:100790001CB01891CDF84480CDF84C901692CDF84D
:1007A0005CA01D94002102911A8E0299914280F260
:1007B0005981AA4A047812F80490A944C55D111918
:1007C00012F8058091F8004191F800A2464406EB2A
:1007D0004406119C0896045D5519165D95F800C1F4
:1007E00095F8005206EB0A0808EB4C0ADDF8488041
:1007F000CDF824A010F80810DDF84C80565C1419D0
:1008000006EB050A10F8085094F800C1565D94F8FC
:10081000004251180AEB4C0C361991F800A1149CB7
:1008200091F80012CDF828C006EB4A08065DCDF815
:100830002C80945DDDF85480551904EB010A95F87D
:10084000004195F800520AEB44010C9110F8081091
:100850009619545C641996F8005104EB45040D9404
:10086000169D96F80062DDF824A0DDF85C80A444B3
:10087000445DCDF86CC0155D5118AD1991F800615B
:1008800091F8001205EB460505EB0A060E9510F8E7
:1008900008501C961419565DDDF860A0711894F884
:1008A000006194F8004201EB460C08990CEB01063C
:1008B0001A9610F80A605519915D9219091995F860
:1008C000004192F8006195F8005201EB44012D249B
:1008D00001EB090804FB09BB10910899CDF864806D
:1008E0000BEB0C09DDF8288005EB460592F8006259
:1008F000242202FB019A152404FB08A9DDF824A098
:100900000C994FF01C0B0BFB0A994FF00A08DDF80D
:100910002CA008FB01994FF00F0B0E990BFB0A99C5
:100920004FF00308DDF834A008FB01994FF0060BE7
:100930000BFB0A99CDF80490DDF82CA00C994FF030
:100940004B0B51440BFB01F91B994FF0490A0AFB71
:10095000019B0699DDF868900BEB010A4FF03F0B05
:100960001C990BFB09AA4FF0450BDDF864900BFBBB
:1009700001AA4FF0370B0BFB09ABDDF824A00A9955
:1009800008FB0AF84FF00609DDF820A009FB0188F2
:100990000C99D0444FF00F09DDF82CA009FB018819
:1009A0000A21DDF8389001FB0A884FF01C0A0D99E6
:1009B0000AFB098804FB018A109C0F994FF02D094E
:1009C00009FB04A8DDF804A002FB0C820692AAF53C
:1009D0007A3971B1039C0599CDF8149004EB0902A2
:1009E000541A0F9A4FF48071544394FBF1F403941A
:1009F000A146079961B1049CC1F5807209FB01FC15
:100A000004FB02C94FF4807199FBF1F20492914604
:100A10001F9C04FB09F1002902DD10314C1103E099
:100A20001039202291FBF2F447F6BC718C42A8BF2A
:100A30000C46DA890299DDF874804A4308498C42F1
:100A4000A8BF21461E9C24F81210029A4044511C53
:100A5000A9E600BFCDB5E8B5301800200008002099
:100A60004480FFFF05981E615D61039E069D049C06
:100A700058629D61C3F81CB01E629C62104621B092
:100A8000BDE8F08F2DE9F04F95B0994C1392994A3B
:100A900012911168A14200D0FEE75E6A1D6A9F6A4A
:100AA0009A69998DB3F82E800C964FF00009D3F80F
:100AB00010C05E69D3F81CB00195029709920A91A3
:100AC000CDF83480CDF80C908B4904780D190C5D6D
:100AD00095F8007295F8008106EB070A067ACDF8C2
:100AE0002CA08F198E5D97F8002202EB4805AC44CC
:100AF000057C97F80081CDF810C04A194D5D92F839
:100B0000009292F8002109EB040A0AEB480C90F8D5
:100B100018A090F82090CDF814C001EB0A0494F8C6
:100B2000007294F80041BF1907EB420801EB09027B
:100B3000CDF8188092F8006292F80021771907EB3F
:100B4000440606EB080C90F8288011F80A70079606
:100B500001EB0805CDF840C095F8004295F800512A
:100B6000E619059F06EB4204E619119690F83060ED
:100B700008948C1911F8097094F80022D219049F76
:100B800002EB4502BD180F9590F8385011F8089007
:100B900094F80041DDF82C808E5D4F1997F800A283
:100BA00097F800710AEB090C0CEB4404DDF818A06F
:100BB00011F805C000941C2505FB082944440A21AE
:100BC000DDF8148001FB0A9906EB4706DDF820A04A
:100BD0000F2707FB0899032101FB0A99DDF81CA0E8
:100BE0004FF0060808FB0A99DDF810A0152101FB5B
:100BF0000A99CB44DDF84490CDF82CB04FF02E0A82
:100C00000AFB09FADDF840904FF0300B0BFB09AA04
:100C10004FF0240B0BFB04A90F9C4FF02A0A0AFB90
:100C2000049B099CDDF81890DDF810A0A344059CF6
:100C300008FB09A8DDF820A04FF0030909FB048890
:100C4000079C07FB0A890A2707FB0498DDF8009038
:100C5000DDF82CA00C9F05FB098501FB02520199D0
:100C60000992AAF500328C180D99DDF82880E51B51
:100C70004D434FF4807195FBF1F40194019F44467C
:100C80007C43029FC8EB010507FB054595FBF1F18D
:100C90000291139C6143002902DD0831091103E030
:100CA0000839102791FBF7F147F6BC75134C129FDA
:100CB0000C92A942A8BF2946039DA142B8BF214674
:100CC00079530C354030C02D03957FF4FDAE099863
:100CD000019C029D9861C3F810C05E61C3F81CB00E
:100CE0001C625A629D62102015B0BDE8F08F00BFF3
:100CF000CDB5E8B530180020000800204480FFFF83
:100D00002DE9F04FA1B084461F92BE4A1E91BE4805
:100D10001168814200D0FEE79E6A9F6905969E8910
:100D2000D98D01967000079703277E431190019893
:100D30009A8D0F9112960521019E08924843B200A8
:100D40001490019E01980199139206277E43072271
:100D5000C700514315961797019E019F1C6A5D6A53
:100D6000169109220A2156434F434FF0000804947C
:100D700006955C691D69D3F81CB018961D97CDF8CF
:100D80000C80188EDDF80C90814580F25A819F49C5
:100D90009CF80000DDF804900F181CF8096097F823
:100DA00000A297F80021085CA2448C198E5D94F88B
:100DB000008294F80041454405EB4207119D0997D4
:100DC0001CF805504A194D5D92F8007292F80081A6
:100DD0003F18129807EB44091CF80040CDF8289002
:100DE00008190C5D90F8007290F80001BF1907EB2C
:100DF0004809DDF84C80CDF82C901CF8089001EBE8
:100E00000902CDF8089092F8006292F80021771953
:100E1000149E1CF80690159E07EB400801EB090094
:100E2000CDF8308090F8005290F800012F1907EBB0
:100E300042081CF80670029DCDF83480CA194E5D38
:100E400092F80042A41904EB40050295DDF82C80CD
:100E5000169E92F80021CF5DA844CDF86C801CF856
:100E6000068011F80950DDF8609001EB080011F8D8
:100E7000088090F8004290F8000166190A9D06EB80
:100E80004204179A0E9466191C961CF802608C197D
:100E90008E5D94F8002294F80041D519099F05EB66
:100EA0004002D5191A951CF809504F194D5D97F855
:100EB000000297F80071404400EB44002D2100EB44
:100EC0000A0401FB0ABB1090099819940BEB020A63
:100ED00006EB470424210B9F01FB00A94FF01508E6
:100EE000DDF828A00D9808FB07964FF01C0B0BFBB4
:100EF0000A69DDF830800A2606FB009A0F27DDF824
:100F0000389007FB08AB4FF0030808FB09BADDF87F
:100F100008B0062000FB0BA9CDF80090DDF834A046
:100F2000DDF830B04FF04B090AEB0B0009FB00FA7B
:100F30001B984FF0490B0BFB00A9079809EB000A1F
:100F4000DDF868901C984FF03F0B0BFB09AA4FF09F
:100F5000450BDDF864900BFB00AA4FF0370B0BFB41
:100F600009ABDDF828A00B9808FB0AF84FF006093A
:100F7000DDF824A009FB00880D9808EB0A0907FB9F
:100F800000980C9FDDF83890029806FB07864FF01A
:100F90001C0A0AFB0968152707FB008610980F9F9B
:100FA0004FF02D0909FB006A01FB02A2DDF800A049
:100FB0000792AAF57A386FB10499069ECDF8188089
:100FC00001EB0800811B79434FF4807291FBF2F72B
:100FD0000497B846089860B1059908FB00F8C0F579
:100FE000807601FB06894FF4807299FBF2F7059732
:100FF000B8461F9800FB08F6002E09DD1036771161
:101000000AE000BF30180020CDB5E8B50008002088
:10101000103E202196FBF1F7039ED8891049DDF898
:10102000748047F6BC729742A8BF17468F42A8BF8C
:10103000394670431E9F721C27F81010C444039257
:101040009FE65C61079C049A9C61059E069C1D615D
:10105000C3F81CB01A625C629E6221B0BDE8F08FDA
:101060004480FFFFAFF3008000000000000000009C
:101070004B1C012B98BF70472DE9F003911C9B0876
:10108000B1F80480B1F802900A8831F802CC8044AB
:10109000814402448444D9F80070D8F8006015688F
:1010A000DCF80040C9F80060C8F80070CCF80050C7
:1010B0001460D9F80470D8F804605568DCF804406E
:1010C000C9F80460C8F80470CCF8045054600831C2
:1010D000013BD5D1BDE8F00370474B1C012B98BFF5
:1010E00070472DE9F003911C9B08B1F80480B1F81A
:1010F00002900A8831F802CC00EB580800EB59093D
:1011000000EB520200EB5C0CD9F80070D8F80060DC
:101110001568DCF80040C9F80060C8F80070CCF829
:10112000005014600831013BDFD1BDE8F003704787
:1011300081F0004102E000BF83F0004330B54FEA88
:1011400041044FEA430594EA050F08BF90EA020FF5
:101150001FBF54EA000C55EA020C7FEA645C7FEA88
:10116000655C00F0E2804FEA5454D4EB5555B8BFAB
:101170006D420CDD2C4480EA020281EA030382EA1C
:10118000000083EA010180EA020281EA0303362DAE
:1011900088BF30BD11F0004F4FEA01314FF4801C81
:1011A0004CEA113102D0404261EB410113F0004F93
:1011B0004FEA03334CEA133302D0524263EB43034A
:1011C00094EA050F00F0A780A4F10104D5F1200EE8
:1011D0000DDB02FA0EFC22FA05F2801841F1000143
:1011E00003FA0EF2801843FA05F359410EE0A5F117
:1011F00020050EF1200E012A03FA0EFC28BF4CF048
:10120000020C43FA05F3C01851EBE37101F00045FD
:1012100007D54FF0000EDCF1000C7EEB00006EEB0A
:101220000101B1F5801F1BD3B1F5001F0CD3490894
:101230005FEA30004FEA3C0C04F101044FEA4452EB
:1012400012F5800F80F09A80BCF1004F08BF5FEA72
:10125000500C50F1000041EB045141EA050130BD52
:101260005FEA4C0C404141EB010111F4801FA4F1F5
:101270000104E9D191F0000F04BF01460020B1FA4A
:1012800081F308BF2033A3F10B03B3F120020CDA82
:101290000C3208DD02F1140CC2F10C0201FA0CF060
:1012A00021FA02F10CE002F11402D8BFC2F1200CC5
:1012B00001FA02F120FA0CFCDCBF41EA0C0190407B
:1012C000E41AA2BF01EB0451294330BD6FEA0404C4
:1012D0001F3C1CDA0C340EDC04F11404C4F12002AF
:1012E00020FA04F001FA02F340EA030021FA04F3C1
:1012F00045EA030130BDC4F10C04C4F1200220FA18
:1013000002F001FA04F340EA0300294630BD21FA55
:1013100004F0294630BD94F0000F83F4801306BF1B
:1013200081F480110134013D4EE77FEA645C18BF0F
:101330007FEA655C29D094EA050F08BF90EA020FA6
:1013400005D054EA000C04BF1946104630BD91EA9E
:10135000030F1EBF0021002030BD5FEA545C05D1A1
:101360004000494128BF41F0004130BD14F58004E0
:101370003CBF01F5801130BD01F0004545F0FE4154
:1013800041F470014FF0000030BD7FEA645C1ABF89
:10139000194610467FEA655C1CBF0B46024650EAC0
:1013A000013406BF52EA033591EA030F41F40021EC
:1013B00030BD00BF90F0000F04BF0021704730B572
:1013C0004FF4806404F132044FF000054FF0000147
:1013D00050E700BF90F0000F04BF0021704730B508
:1013E0004FF4806404F1320410F0004548BF4042DD
:1013F0004FF000013EE700BF42004FEAE2014FEA32
:1014000031014FEA02701FBF12F07F4393F07F4F0C
:1014100081F06051704732F07F4208BF704793F00F
:101420007F4F04BF41F40021704730B54FF4607422
:1014300001F0004521F000411CE700BF50EA010225
:1014400008BF704730B54FF000050AE050EA0102CE
:1014500008BF704730B511F0004502D5404261EB3E
:1014600041014FF4806404F132045FEA915C3FF47F
:10147000D8AE4FF003025FEADC0C18BF03325FEA1C
:10148000DC0C18BF033202EBDC02C2F1200300FACD
:1014900003FC20FA02F001FA03FE40EA0E0021FAF2
:1014A00002F11444BDE600BF00000000000000008F
:1014B00070B54FF0FF0C4CF4E06C1CEA11541DBFEA
:1014C0001CEA135594EA0C0F95EA0C0F00F0DEF8B5
:1014D0002C4481EA030621EA4C5123EA4C5350EA9A
:1014E000013518BF52EA033541F4801143F48013EB
:1014F00038D0A0FB02CE4FF00005E1FB02E506F07C
:101500000042E0FB03E54FF00006E1FB03569CF0D0
:10151000000F18BF4EF0010EA4F1FF04B6F5007FD6
:1015200064F5407404D25FEA4E0E6D4146EB060648
:1015300042EAC62141EA55514FEAC52040EA5E50D1
:101540004FEACE2EB4F1FD0C88BFBCF5E06F1ED87B
:10155000BEF1004F08BF5FEA500E50F1000041EBB2
:10156000045170BD06F0004646EA010140EA02005F
:1015700081EA0301B4EB5C04C2BFD4EB0C0541EA81
:10158000045170BD41F480114FF0000E013C00F396
:10159000AB8014F1360FDEBF002001F0004170BDBA
:1015A000C4F10004203C35DA0C341BDC04F11404D3
:1015B000C4F1200500FA05F320FA04F001FA05F25F
:1015C00040EA020001F0004221F0004110EBD3702C
:1015D00021FA04F642EB06015EEA430E08BF20EA58
:1015E000D37070BDC4F10C04C4F1200500FA04F3FB
:1015F00020FA05F001FA04F240EA020001F000418D
:1016000010EBD37041F100015EEA430E08BF20EAFF
:10161000D37070BDC4F1200500FA05F24EEA020E47
:1016200020FA04F301FA05F243EA020321FA04F076
:1016300001F0004121FA04F220EA020000EBD3702D
:101640005EEA430E08BF20EAD37070BD94F0000F2D
:101650000FD101F00046400041EB010111F4801F61
:1016600008BF013CF7D041EA060195F0000F18BF12
:10167000704703F00046520043EB030313F4801F4E
:1016800008BF013DF7D043EA0603704794EA0C0F08
:101690000CEA135518BF95EA0C0F0CD050EA41061E
:1016A00018BF52EA4306D1D181EA030101F000419B
:1016B0004FF0000070BD50EA410606BF10461946C3
:1016C00052EA430619D094EA0C0F02D150EA0136CF
:1016D00013D195EA0C0F05D152EA03361CBF104610
:1016E00019460AD181EA030101F0004141F0FE41AF
:1016F00041F470014FF0000070BD41F0FE4141F433
:10170000780170BD70B54FF0FF0C4CF4E06C1CEA32
:1017100011541DBF1CEA135594EA0C0F95EA0C0FE7
:1017200000F0A7F8A4EB050481EA030E52EA0335A2
:101730004FEA013100F088804FEA03334FF08055C3
:1017400045EA131343EA12634FEA022245EA1115F0
:1017500045EA10654FEA00260EF000419D4208BFA1
:10176000964244F1FD0404F5407402D25B084FEA4E
:101770003202B61A65EB03055B084FEA32024FF4FA
:1017800080104FF4002CB6EB020E75EB030E22BF57
:10179000B61A754640EA0C005B084FEA3202B6EB17
:1017A000020E75EB030E22BFB61A754640EA5C00C6
:1017B0005B084FEA3202B6EB020E75EB030E22BF56
:1017C000B61A754640EA9C005B084FEA3202B6EB57
:1017D000020E75EB030E22BFB61A754640EADC0016
:1017E00055EA060E18D04FEA051545EA16754FEA78
:1017F00006164FEAC30343EA52734FEAC2025FEA96
:101800001C1CC0D111F4801F0BD141EA00014FF024
:1018100000004FF0004CB6E711F4801F04BF0143F5
:101820000020B4F1FD0C88BFBCF5E06F3FF6AFAE11
:10183000B5EB030C04BFB6EB020C5FEA500C50F1A1
:10184000000041EB045170BD0EF0004E4EEA113124
:1018500014EB5C04C2BFD4EB0C0541EA045170BD2B
:1018600041F480114FF0000E013C90E645EA060E6F
:101870008DE60CEA135594EA0C0F08BF95EA0C0F9D
:101880003FF43BAF94EA0C0F0AD150EA01347FF4E5
:1018900034AF95EA0C0F7FF425AF104619462CE7BC
:1018A00095EA0C0F06D152EA03353FF4FDAE10461F
:1018B000194622E750EA410618BF52EA43067FF470
:1018C000C5AE50EA41047FF40DAF52EA43057FF400
:1018D000EBAE12E700000000000000000000000076
:1018E0004FEA410212F5001215D211D56FF4787348
:1018F000B3EB625212D94FEAC12343F0004343EAEB
:10190000505311F0004F23FA02F018BF40427047C5
:101910004FF00000704750EA013005D111F000404F
:1019200008BF6FF0004070474FF00000704700BFE5
:101930004A0011D212F5001211D20DD56FF478734E
:10194000B3EB62520ED44FEAC12343F0004343EAA3
:10195000505323FA02F070474FF00000704750EAEE
:10196000013002D14FF0FF3070474FF00000704758
:101970004FEA4102B2F1E04324BFB3F5001CDCF1B1
:10198000FE5C0DD901F0004C4FEAC0024CEA5070E9
:10199000B2F1004F40EB830008BF20F00100704718
:1019A00011F0804F21D113F13872BCBF01F000401B
:1019B000704741F480114FEA5252C2F11802C2F14D
:1019C000200C10FA0CF320FA02F018BF40F00100CE
:1019D0004FEAC1234FEAD32303FA0CFC40EA0C0080
:1019E00023FA02F34FEA4303CCE77FEA625307D1BD
:1019F00050EA01331EBF4FF0FE4040F440007047F4
:101A000001F0004040F0FE4040F40000704700BF8D
:101A100053B94AB9002908BF00281CBF4FF0FF3155
:101A20004FF0FF3000F074B9ADF1080C6DE904CE51
:101A300000F006F8DDF804E0DDE9022304B07047A9
:101A40002DE9F047089E04468846002B4BD18A4278
:101A5000154667D9B2FA82F24AB1C2F1200701FAFB
:101A600002F320FA07F7954047EA030894404FEA4B
:101A7000154E230CB8FBFEF71FFA85FC0EFB1788EA
:101A800043EA084307FB0CF1994209D9EB1807F127
:101A9000FF3080F01B81994240F21881023F2B44B5
:101AA0005B1AA4B2B3FBFEF00EFB103344EA03440E
:101AB00000FB0CFCA44509D92C1900F1FF3380F080
:101AC0000781A44540F2048102382C4440EA0740D3
:101AD000A4EB0C0400271EB1D4400023C6E9004348
:101AE0003946BDE8F0878B4209D9002E00F0EB8023
:101AF0000027C6E9000138463946BDE8F087B3FA49
:101B000083F7002F47D18B4202D3824200F2FA8042
:101B1000841A61EB030301209846002EE0D0C6E949
:101B20000048DDE702B9FFDEB2FA82F2002A40F097
:101B30008F80491B4FEA154E1FFA85F80127B1FB2C
:101B4000FEFC230C0EFB1C1143EA014308FB0CF1C5
:101B5000994207D9EB180CF1FF3002D2994200F2FA
:101B6000CD808446591AA3B2B1FBFEF00EFB1014CF
:101B700043EA044408FB00F8A04507D92C1900F1FA
:101B8000FF3302D2A04500F2B6801846A4EB080449
:101B900040EA0C409FE7C7F1200CBB4022FA0CFE44
:101BA0004EEA030E01FA07F420FA0CF521FA0CF3C1
:101BB0004FEA1E482543B3FBF8F92C0C08FB1933F8
:101BC0001FFA8EFA44EA034309FB0AF49C4202FA24
:101BD00007F200FA07F10BD91EEB030309F1FF30FE
:101BE00080F087809C4240F28480A9F1020973440E
:101BF0001B1BADB2B3FBF8F008FB103345EA0344FE
:101C000000FB0AFAA24508D91EEB040400F1FF33D9
:101C10006BD2A24569D90238744440EA0940A0FB5E
:101C20000289A4EB0A044C45C2464B4654D351D01A
:101C3000002E69D0B1EB0A0564EB030404FA0CFC36
:101C4000FD40FC404CEA0505C6E90054002747E783
:101C5000C2F1200320FA03F7954001FA02F021FABD
:101C600003F34FEA154E3843010CB3FBFEF71FFA9E
:101C700085F80EFB173341EA034107FB08F38B425B
:101C800004FA02F407D9691807F1FF3C2FD28B42FE
:101C90002DD9023F2944CB1A81B2B3FBFEF00EFBD3
:101CA000103341EA034100FB08F38B4207D969185E
:101CB00000F1FF3C17D28B4215D902382944C91ACA
:101CC00040EA07473BE73746304609E70746E7E67D
:101CD0001846FBE64145ABD2B8EB020A69EB0E02AF
:101CE00001381346A4E76046E9E7184695E76746DA
:101CF000D1E781467CE702382C4447E7ACF1020C7F
:101D00002B442FE7384608E73746E9E60000000095
:101D1000704700BF0000000000000000000000004D
:101D2000844641EA000313F003036DD1403A41D3E6
:101D300051F8043B40F8043B51F8043B40F8043BA5
:101D400051F8043B40F8043B51F8043B40F8043B95
:101D500051F8043B40F8043B51F8043B40F8043B85
:101D600051F8043B40F8043B51F8043B40F8043B75
:101D700051F8043B40F8043B51F8043B40F8043B65
:101D800051F8043B40F8043B51F8043B40F8043B55
:101D900051F8043B40F8043B51F8043B40F8043B45
:101DA00051F8043B40F8043B51F8043B40F8043B35
:101DB000403ABDD2303211D351F8043B40F8043BD5
:101DC00051F8043B40F8043B51F8043B40F8043B15
:101DD00051F8043B40F8043B103AEDD20C3205D3E5
:101DE00051F8043B40F8043B043AF9D2043208D0DD
:101DF000D2071CBF11F8013B00F8013B01D30B884F
:101E000003806046704700BF082A13D38B078DD02C
:101E100010F003038AD0C3F10403D21ADB071CBFFE
:101E200011F8013B00F8013B80D331F8023B20F868
:101E3000023B7BE7043AD9D3013A11F8013B00F8A1
:101E4000013BF9D20B7803704B7843708B78837029
:101E50006046704700000000000000000000000025
:101E600090F800F06DE9024520F007016FF0000CDA
:101E700010F0070491F820F040F049804FF0000482
:101E80006FF00700D1E9002391F840F000F108005D
:101E900082FA4CF2A4FA8CF283FA4CF3A2FA8CF395
:101EA0004BBBD1E9022382FA4CF200F10800A4FAFC
:101EB0008CF283FA4CF3A2FA8CF3E3B9D1E9042350
:101EC00082FA4CF200F10800A4FA8CF283FA4CF387
:101ED000A2FA8CF37BB9D1E9062301F1200182FA41
:101EE0004CF200F10800A4FA8CF283FA4CF3A2FA47
:101EF0008CF3002BC6D0002A04BF04301A4612BA55
:101F0000B2FA82F2FDE8024500EBD2007047D1E957
:101F1000002304F00305C4F100004FEAC50514F0E6
:101F2000040F91F840F00CFA05F562EA05021CBFB7
:101F300063EA050362464FF00004A9E700000000D1
:101F400001F0FF01102A2BDB10F0070F08D010F86A
:101F5000013B013A8B422DD010F0070F42B3F6D16E
:101F6000F0B441EA012141EA014122F007047FF087
:101F700000070023F0E80256083C85EA010586EADE
:101F8000010685FA47F5A3FA87F586FA47F6A5FA1A
:101F900087F68EB9EED1F0BC01F0FF0102F0070226
:101FA00032B110F8013B013A83EA010313B1F8D1D1
:101FB0000020704701387047002D06BF35460338B2
:101FC000073815F0010F07D1013015F4807F02BFEB
:101FD000013015F4C03F0130F0BC0138704700BF3C
:101FE0004FF0FF3C06E000BF4FF0010C02E000BFE5
:101FF0004FF0010C4DF804CD4FEA410C7FEA6C5CC8
:102000004FEA430C18BF7FEA6C5C1BD001B050EA6A
:10201000410C0CBF52EA430C91EA030F02BF90EA55
:10202000020F0020704710F1000F91EA030F58BF14
:10203000994208BF90422CBFD8176FEAE37040F076
:10204000010070474FEA410C7FEA6C5C02D150EA14
:10205000013C07D14FEA430C7FEA6C5CD6D152EACF
:10206000033CD3D05DF8040B704700BF8446104694
:1020700062468C461946634600E000BF01B5FFF793
:10208000B7FF002848BF10F1000F01BD4DF808ED63
:10209000FFF7F4FF0CBF012000205DF808FB00BF34
:1020A0004DF808EDFFF7EAFF34BF012000205DF88E
:1020B00008FB00BF4DF808EDFFF7E0FF94BF0120DB
:1020C00000205DF808FB00BF4DF808EDFFF7CEFFDC
:1020D00094BF012000205DF808FB00BF4DF808ED1B
:1020E000FFF7C4FF34BF012000205DF808FB00BFEC
:1020F0004FEA410C7FEA6C5C02D150EA013C0AD104
:102100004FEA430C7FEA6C5C02D152EA033C02D1F5
:102110004FF0000070474FF00100704700000000D2
:1021200010B5284B284C1B78226882B00192072BEF
:102130003FD8DFE803F01D2C0F043E3E3E04019A19
:1021400023689A423BD10021084602B0BDE8104006
:1021500002F0A6BD002002F0FBFD019A23689A421E
:102160002DD10121002002B0BDE8104002F098BD41
:102170000121084602F094FD019A23689A421ED17B
:102180000121032002B0BDE8104002F089BD00210A
:10219000012002F085FD0021032002F081FD019A5B
:1021A00023689A420BD1012002B0BDE8104002F032
:1021B000CFBD019A23689A4201D102B010BD00F050
:1021C0000FF900BF35180020000B002000000000B0
:1021D00030B50C4D83B02B680193044638B901210A
:1021E000084602F05DFD0121032002F059FD019A2D
:1021F0002B6805499A420C7001D103B030BD00F044
:10220000EFF800BF000B0020351800200000000090
:1022100010B51A4A1A4C1378216882B00191072B25
:1022200010D8DFE803F00416191D210F1304012351
:102230001370019A23689A421DD102B0BDE8104084
:10224000FFF76EBF0020FFF7C3FFF2E70223137012
:10225000EFE706231370ECE750B103231370E8E7B0
:1022600030B104231370E4E710B108231370E0E7E2
:1022700007231370DDE700F0B3F800BF3518002026
:10228000000B002000000000000000000000000023
:1022900070B5224C224D23782A6882B00192BBB1DE
:1022A000204B1B78072B19D0082B30D0062B21D0C0
:1022B0000121022002F0F4FC2378062B14D801330C
:1022C00023700120019A2B689A4224D102B070BD7C
:1022D000154B144A1B781370072BE5D1022002F02E
:1022E00057FD2378062BEAD90120FFF791FF002044
:1022F0002070E7E70D4E0221307802F0D1FC3378F0
:102300000133DBB2032B88BF00233370D4E70220F4
:1023100002F01EFDD0E700F063F800BF3618002081
:10232000000B00203718002035180020341800203A
:1023300030B51B4B1B4C1B6883B00025019308F084
:10234000CFFE06F0F5FD02F0A3FD01F0C1FF02F0A3
:1023500097FB03F075F8144801F0C2FC00F070FD23
:1023600000F09EFC06F074FDFFF7DAFE05E0FFF7D3
:102370008FFF0546C82007F0F3FB2378052BF6D81E
:10238000002DF4D1C82007F0EBFB2378052B4FF08C
:10239000C800ECD807F0E4FB2378052BF2D9E6E778
:1023A000000B002035180020C12F0008000000009D
:1023B00000B5074B07491A68087883B00192019A63
:1023C0001B689A4202D103B05DF804FB00F008F8E4
:1023D000000B002035180020000000000000000065
:1023E00000B5084B83B01A680192019A1B689A42A3
:1023F00005D1054803B05DF804EB06F001BEFFF718
:10240000EFFF00BF000B0020005401080000000097
:102410002DE9F043B74BB84D1A78296883B0019184
:10242000002A00F00681B54CB54F06F039FD0138A1
:1024300086B28F2E48D9B34E3378002B76D1DFF891
:10244000D482202383F3118807F092FE06F078FEF1
:10245000A66A06F095FE07F0A3FE2368A34205D006
:10246000A2699B6892689A42C0F02281002383F39C
:102470001188D8F800003A68A3494FF47A7303FB37
:1024800000F303F5371303F6A723B21AA1FB0313D6
:10249000B2EB931F10D90020FFF7BAFE002002F024
:1024A000B7FF019A2B689A4240F02181002003B0C7
:1024B000BDE8F04302F094BF019A2B689A4240F0C5
:1024C000168103B0BDE8F083FFF772FF032800F028
:1024D0000681202383F3118807F04AFE06F030FEC0
:1024E000D4F8288006F04CFE07F05AFE2368A34279
:1024F00007D0A2699B6892689A4202D2834806F08C
:102500007FFD002383F31188814B4FF47A70C3F869
:10251000008002F07DFF4FF47A7002F061FF2B2EF5
:1025200089D8784E3378002B00F0A080202383F3E5
:10253000118807F01DFE06F003FED4F8289006F07F
:102540001FFE07F02DFE2368A34205D0A2699B68F9
:1025500092689A42C0F0BF80002383F31188DFF8AD
:10256000B481D8F80030A9EB0309B9F1640F00F287
:10257000A3803378002B3FF464AF202383F31188CA
:1025800007F0F6FD06F0DCFDA66A06F0F9FD07F09F
:1025900007FE2368A34207D0A2699B6892689A420B
:1025A00002D25A4806F02CFD002383F31188D8F894
:1025B00000103A6854484FF47A7303FB01F303F5B3
:1025C000F41303F66703B21AA0FB0313B2EB931FD5
:1025D0003FF661AF202383F3118807F0C9FD06F0B1
:1025E000AFFDA66A06F0CCFD07F0DAFD2368A34232
:1025F00007D0A2699B6892689A4202D2434806F0CB
:10260000FFFC002383F31188414BD8F800101868B1
:102610003D4A4FF47A7303FB01F303F5742303F28D
:102620002763361AA2FB0323B6EB931F3FF633AFA3
:1026300007E701221A70202383F311882F4C07F03B
:1026400097FD06F07DFDA66A06F09AFD07F0A8FD4D
:102650002368A34204D0A2699B6892689A4236D349
:10266000002383F31188264F3E60DEE6202383F3A8
:10267000118807F07DFD06F063FDD4F8289006F080
:102680007FFD07F08DFD2368A34207D0A2699B68F8
:1026900092689A4202D21D4806F0B2FC002383F3EE
:1026A0001188DFF870800123C8F80090337064E768
:1026B000164806F0A5FCD9E6FFF77AFE042812D0EA
:1026C000002002F0A5FE002002F08AFE51E70F482C
:1026D00006F096FCC4E70D4806F092FC3CE70120AA
:1026E000FFF796FDF5E60120FFF792FDE8E7FFF71B
:1026F00077FE00BF3B180020000B0020F06F002089
:10270000581800203C180020D34D621030540108A6
:102710005C18002054180020000000000000000099
:1027200000B5411A89B22B4A01F1090383B09BB26B
:1027300010680190122B43D927489FED286AB0F901
:102740000030DFED276A09B207EE901A07EE103A63
:10275000F8EEE77AB8EEC77AF0EE675AE7EE065A77
:10276000BDEEE57A17EE103A1BB207EE103AB8EE5E
:10277000C77AB4EEE67AF1EE10FA14DD40F2BA53FD
:102780009FED187A0380F6EE006AA7EEA67ABDEEFA
:10279000C77A17EE103A18B201991368994217D107
:1027A00003B05DF804FBDFED106AB4EEE67AF1EEFB
:1027B00010FA07D54FF646239FED0C7A0380E2E727
:1027C0000020E9E7DFED0A6A038027EE267ADAE7E0
:1027D000FFF706FE000B0020441800207B146E3F1C
:1027E0005555B74467E65B435555B7C467E65BC3C9
:1027F0009A99193E0000000000000000000000004F
:102800002DE9F041B24EB34C336882B0019300F031
:102810004FFB10B92378002B6BD000F049FB002848
:102820003CD0AD4F3B78002B38D1AC49AC4A23703B
:1028300014200870137000F023FB4FF4A071FFF711
:102840006FFFA84D28800A30A74C80B21428238837
:102850003AD8002B32D0FFF7ABFD03283CD0FFF76E
:10286000A7FD022866D0FFF7A3FD042818BFB5F91D
:102870000000238804BF00202880181A02F0C8FD39
:10288000019A33689A4240F04381B5F900002388E9
:10289000184402B0BDE8F04102F0A2BD2378002B3D
:1028A00072D18F4D2B78002BC5D0FFF781FD022808
:1028B0008C4D00F09980B5F90000C4E700F0F8FAFB
:1028C000002840F0E9802388002BC4D1874A137088
:1028D000FFF76EFD0328C2D100F0EAFA0346002894
:1028E000BDD101202B80FFF793FC4FF47A73238036
:1028F000B5E7202383F311887D4D07F039FC06F0FE
:102900001FFCAF6A06F03CFC07F04AFC2B68AB42A8
:1029100007D0AA699B6892689A4202D2754806F06D
:102920006FFB002383F31188734B6D4D1F600123F0
:102930002370B7E7202383F311886D4F07F018FC4D
:1029400006F0FEFBD7F8288006F01AFC07F028FCFA
:102950003B68BB4207D0BA699B6892689A4202D230
:10296000644806F04DFB002383F31188634A126824
:10297000A8EB020841F2707290457FF674AF1846DA
:102980002B80FFF745FC6EE7FFF712FD022888D188
:10299000524A13788BB3013BDBB213706BBB504DC3
:1029A0004D4F01232B703B70202383F31188504C33
:1029B00007F0DEFB06F0C4FBD4F8288006F0E0FB4D
:1029C00007F0EEFB2368A34207D0A2699B689268D8
:1029D0009A4202D2474806F013FB002383F3118882
:1029E000474BC3F800800BE03F4C40F226232B807E
:1029F0002388002B3FF46AAF2DE73D4C364F384D0E
:102A0000202383F3118807F0B3FB06F099FBD4F879
:102A1000288006F0B5FB07F0C3FB2368A34207D06C
:102A2000A2699B6892689A4202D2324806F0E8FA9C
:102A3000002383F31188304B1B68A8EB0308B8F51B
:102A40002F7F3B7840D901222A70002B3FF42DAF15
:102A5000202383F3118807F08BFB06F071FBD4F879
:102A6000288006F08DFB07F09BFB2368A34207D06C
:102A7000A2699B6892689A4202D21E4806F0C0FA88
:102A8000002383F311881E4A1268A8EB0208B8F1EC
:102A9000640F88BF3B7005E7144F3B780133DBB20E
:102AA0000C2B3B707FF6D7AE2388002B7FF4D3AE80
:102AB000FFF77EFC022827D0124900234FF47A72D8
:102AC0000B803B702280CAE6002B3FF4EBAEBFE7E1
:102AD000000B0020391800203A1800203E18002072
:102AE0003D1800204018002042180020381800200F
:102AF000F06F002030540108501800204C180020BE
:102B000048180020441800200120FFF781FBD3E77C
:102B1000FFF766FC0000000000000000000000005D
:102B200070B5204C82B02368019340B9019A2368A4
:102B30009A4235D102B0BDE87040FFF761BE202354
:102B400083F31188184D07F013FB06F0F9FAAE6A0B
:102B500006F016FB07F024FB2B68AB4207D0AA69EE
:102B60009B6892689A4202D2104806F049FA002304
:102B700083F311880E4A0F4916600F4A0F4D104813
:102B80000B801370019922682B8003800D4E0E4D2F
:102B90000E48337091422B70037001D102B070BDAA
:102BA000FFF71EFC000B0020F06F002030540108DE
:102BB0004C1800204218002038180020441800202B
:102BC000401800203A1800203D1800203918002035
:102BD0002DE9F04F274C284BA26928491B68DFF8E4
:102BE000A8B0DFF8A8A0DFF8A890DFF8A88091616E
:102BF00085B020270393002608E0042832D1FFF790
:102C000007FC05F10A01284606F0EAFF87F3118860
:102C100007F0AEFA06F094FAA56A06F0B1FA07F0EA
:102C2000BFFA2368A34207D0A2699B6892689A42C0
:102C300002D2134806F0E4F986F31188FFF7B8FBD7
:102C4000831EDBB2022BD8D90120FFF769FF0D4BA1
:102C5000CBF80060CAF80060C9F8006088F800602E
:102C60001E70CEE70190FFF7CBFD01980228C8D077
:102C7000C5E700BFF06F0020000B002020540108C2
:102C8000305401083C180020541800205C18002023
:102C9000581800203B180020000000000000000031
:102CA00010B50A4C0A4B22680A4884B04FF41E71D2
:102CB000039200220092402206F0FAFE039A236853
:102CC0009A4201D104B010BDFFF78AFB000B00202F
:102CD000D12B000860180020000000000000000058
:102CE000F0B52C4C83B02368019300F27F25431E7E
:102CF000002213F8011F9D420A44FAD1264B0578A1
:102D0000A3FB0232520A002140F279264B1C954265
:102D10009BB21FD94518AD7995421BD2B34225D835
:102D200021B303F1FF3C84441CF8015F95429FB23C
:102D300015D91CF806EC964511D2A7EB010CBCF195
:102D4000450F3B461BDCB74210D839464B1C954219
:102D50009BB2DFD8B34209D8C55C1946D6E7013724
:102D6000BFB2B7F5207F03F10103DDD10B4B002289
:102D70001A70019A23689A4209D103B0F0BD0B443E
:102D80000748064A5B10012103801170F1E7FFF745
:102D900027FB00BF000B0020CDCCCCCCD81A0020E4
:102DA000040B0020000000000000000000000000F4
:102DB00030B5204A204B926920499161ADF5277DBD
:102DC00005AD1B68A5934FF42072002128460FF033
:102DD000E7F8202302220021CDE9013300924FF4CD
:102DE0002073C822302001F0F3FB01F0F9FA002033
:102DF00001F02EFB01F094FA01F06AFB01F0D0FA29
:102E000001F03EFB0446FFF7D3FA022803D0FFF798
:102E1000CFFA0328F0D10023E25CC3F34E01023362
:102E200022F00702B3F5A06F6A54F5D12846FFF7E8
:102E300057FFE1E7F06F0020000B0020405401082D
:102E400010B50A4C0A4B22680A4884B04FF4AF61AF
:102E5000039200220092402206F02AFE039A236881
:102E60009A4201D104B010BDFFF7BAFA000B00205E
:102E7000B12D0008E01A0020000000000000000052
:102E800000B5074B07491A68088883B00192019A78
:102E90001B689A4202D103B05DF804FBFFF7A0FA69
:102EA000000B0020040B00200000000000000000C8
:102EB00000B5074B07491A68087883B00192019A58
:102EC0001B689A4202D103B05DF804FBFFF788FA51
:102ED000000B0020D81A00200000000000000000B5
:102EE0002DE9F0412F4E9FED307A336882B000F526
:102EF000887001934FF0FF344423F0EC017AF4EE34
:102F0000C77AF1EE10FAC8BF1CB203F10103C8BFC3
:102F1000B0EE677A5D2BF0D1FFF74AFA0128A5B22F
:102F200003D0A5F14303062B22D9FFF741FA01286C
:102F300080461E4F07D0019A33683D809A422FD1B8
:102F400002B0BDE8F0813B881B1B0333062B07D87A
:102F5000A5F14D03062B10D9A5F15703062B15D962
:102F6000134802F03DFA4FF4C87002F051FAE2E75C
:102F70000120FFF74DF90D4FDDE74FF42F7002F000
:102F80002FFA4FF42F7002F043FAD4E7002002F03A
:102F900027FA002002F03CFA4046FFF739F9CAE769
:102FA000FFF71EFA000B002000B888465A50002098
:102FB00070FEFFFF000000000000000000000000A5
:102FC0002DE9F041414C82B02368019380460F46C1
:102FD000FFF7EEF901284AD13D4D2B88002F6CD028
:102FE000B8F904203B4E07EE902A5A1C06EB8301E9
:102FF00092B202339BB2F8EEE77A06EB82024FF010
:10300000000EB3F5006FC1ED007A2B80C2F800E02E
:1030100036D2791EC1F38D01404608EBC10100276D
:103020001AE0B0F90C2007EE902A5A1C92B203F174
:10303000020C06EB8307F8EEE77A06EB82021FFA32
:103040008CF3B3F5006FC7ED007A00F108004FF084
:103050000107C2F800E012D28842E2D1002F32D13B
:10306000019A23689A422CD102B0BDE8F081FFF7A3
:103070009FF90028B0D0184B01221A70F0E72B807E
:1030800001230022134915480EF062F84FF48062C4
:10309000134910480EF0DCF80F4A117800232B80FA
:1030A00009B11370DCE7019A23689A4209D10C48F0
:1030B00002B0BDE8F041FFF713BFB3F5006FCFD307
:1030C000DEE7FFF78DF92B80CAE700BF000B002079
:1030D0005850002058200020060B002060540108A2
:1030E0005840002000000000000000000000000028
:1030F00030B54368174D1A68296883B004460191BA
:1031000012B304220270DA681B685208114698470D
:103110002378042B18D0202383F3118807F058F864
:1031200006F04EF804F10800002106F051FE06F00A
:1031300067F807F065F8002383F31188019A2B687C
:103140009A4204D103B030BD02232370E3E7FFF7B6
:1031500047F900BF000B0020000000000000000045
:1031600070B5194D82B02B68019311F00C0F0C460D
:10317000064622D114F0200109D0019A2B689A4208
:103180001FD1304602B0BDE87040FFF7B1BFE30683
:103190000DD57268136853B1019C2868844210D120
:1031A000D2683046520802B0BDE870401847019A14
:1031B0002B689A4205D102B070BD044805F020FF8B
:1031C000D8E7FFF70DF900BF000B0020905401086D
:1031D00070B5194D82B02B68019311F00C0F0C469D
:1031E000064622D114F0200109D0019A2B689A4298
:1031F0001FD1304602B0BDE87040FFF779BFE3064B
:103200000DD57268136853B1019C2868844210D1AF
:10321000D2683046520802B0BDE870401847019AA3
:103220002B689A4205D102B070BD044805F0E8FE53
:10323000D8E7FFF7D5F800BF000B00209054010835
:1032400030B50F4D0F4C2A680F4B83B020460192CA
:103250004FF6FF721A8000F013FC0C4B01992A689C
:103260000B480C4D2562636203F1240591420A4B21
:103270002363C4E90A5001D103B030BDFFF7B0F8B1
:10328000000B0020745000205C500020485E0108B4
:103290001E010100003C004046000100000000004B
:1032A00070B52C4D03782A6882B0012B0446019238
:1032B00024D06368E26A5989236B22F4F04223F434
:1032C000F043090544BF42F4205243F42053C4E9BB
:1032D0000B23236A00221A606268236A52891A60EB
:1032E000236A03225A60226A136843F04003136082
:1032F000019A2B689A422BD102B070BD164EB04293
:103300000AD0D4E9083212680C339360A26A236AA7
:1033100012680C339360CCE70346104A406A0A21D6
:103320000AF0B6F880B9B06A0B4B0D4A0A210AF0D0
:10333000AFF828B90B4A136C43F400431364E0E779
:10334000094805F05DFEF5E7074805F059FEEAE794
:10335000FFF746F8000B002074500020D131000820
:10336000613100080038024070540108000000007C
:1033700070B5456A174C2D68266882B00196EB60DF
:10338000436A1B685960456AC36A2D6843F48063C9
:103390002B60836A1B68DA60836A1B685960826AE3
:1033A000036B126843F480631360436A1A681368FE
:1033B00043F001031360836A1A68136843F0010342
:1033C0001360019A23689A4201D102B070BDFFF7E1
:1033D00007F800BF000B0020000000000000000004
:1033E00030B5104D81682B680F4A83B001930B688C
:1033F00023F001030B608168946A03E0936A1B1B4E
:10340000C72B09D8086810F00100F7D1019A2B6882
:103410009A4204D103B030BD4FF0FF30F6E7FEF71B
:10342000DFFF00BF000B0020F06F00200000000055
:1034300030B5184D83B02B68019311F00C0F044682
:103440000AD00378032B13D00622636822709A688F
:103450001AB100212046904763685B688BB10199DF
:103460002A68914213D1204603B0BDE83040184786
:10347000FFF7B6FF0622636822709A68002AE8D137
:10348000EBE7019A2B689A4201D103B030BDFEF7F9
:10349000A7FF00BF000B002000000000000000009C
:1034A000F0B5284D83B02B68019306F029FE05F096
:1034B000C7FE254B1E69F20715D55A69234C42F009
:1034C00001025A612778BB1F012B2AD905226368A4
:1034D00022701B680BB120469847042F27D0022F7B
:1034E00025D003232370B30710D5174A174C53690F
:1034F00043F0020353612378032B1DD063689B685C
:103500000622227013B101211048984705F0C0FE31
:10351000019A2B689A4213D103B0BDE8F04007F03E
:103520009FBD019A2B689A420AD103B0F0BD0223D5
:103530002370B307EAD5D8E72046FFF751FFDDE750
:10354000FEF74EFF000B00200000055060500020E9
:1035500030B50B4D0B4C2B6883B02046019300F027
:103560002FF9019A2B680848084D094921619A42B0
:10357000C4E9025001D103B030BDFEF731FF00BFF6
:10358000000B0020605000209C5E010800000550E8
:1035900016550202000000000000000000000000BC
:1035A0002DE9F0412F4C0578266882B0012D019657
:1035B00006D0019A23689A4252D102B0BDE8F08148
:1035C000294DA842F5D10E4690461F46274AE86885
:1035D0002B460C2109F05CFF002839D1D5E90232D5
:1035E000126828339360EB681A68042151611B68E4
:1035F000C3F80C80EB681A6817611B68B6085E6038
:103600002B694FB343F480232B61E968184A09689A
:103610000B60EB6819680B6843F001030B60536B98
:1036200043F0010353630B214E2009F011FCD5E94F
:103630000113DA6842F00102DA60DA6842F002024D
:10364000DA60CA6822F4804222F001021A60B0E710
:10365000084805F0D5FCC1E723F480232B61D4E7AB
:10366000FEF7BEFE000B0020605000203134000841
:1036700000380240A05401080000000000000000D3
:1036800030B5184C0378226883B0022B019205D024
:10369000019A23689A4223D103B030BD124B98425D
:1036A0000546F5D18168114A0B6823F4804323F065
:1036B00001030B608168CB6823F00F03CB60536B71
:1036C00023F0010353634E2009F0EAFB019A2368BB
:1036D0009A4205D1E86803B0BDE8304009F040BF28
:1036E000FEF77EFE000B00206050002000380240F4
:1036F00000B50F4B0278196883B0022A01910ED1F0
:1037000081680A6842F002020A6081680A6842F42D
:1037100080420A6081680A6842F001020A60019AE8
:103720001B689A4202D103B05DF804FBFEF758FE15
:10373000000B00200000000000000000000000005E
:1037400000B50F4B0278196883B0022A01910ED19F
:1037500081680A6822F002020A6081680A6842F4FD
:1037600080420A6081680A6842F001020A60019A98
:103770001B689A4202D103B05DF804FBFEF730FEED
:10378000000B00200000000000000000000000000E
:1037900000B5074B83B01A680192019A1B689A42E0
:1037A00004D103B05DF804EBFFF7D2BEFEF718FEBC
:1037B000000B0020000000000000000000000000DE
:1037C00000B5084B83B01A68019201220270019A79
:1037D0001B6800219A42416002D103B05DF804FBEE
:1037E000FEF7FEFD000B00200000000000000000BE
:1037F0002DE9F043254D83B02C680194DDF8289025
:103800000F4616469846044618B111B1204B9A420D
:103810002FD9204805F0F4FB202383F3118806F00C
:10382000A7FC05F08DFC2378012B02D0194805F088
:10383000E7FB4246314620464B466760FFF7B0FE45
:103840000223237005F09CFC06F0AAFC124B1A68B8
:103850009A4204D0996993688A689A420FD30023E8
:1038600083F31188019A2B689A420CD103B0BDE80A
:10387000F0839307CDD1B8F1000FCDD1C9E7074848
:1038800005F0BEFBEBE7FEF7ABFD00BF000B002031
:10389000FCFF0300D0540108F06F0020C054010861
:1038A00030B51C4D83B02B680193044658B32023D8
:1038B00083F3118806F05CFC05F042FC2378022BB0
:1038C00002D0154805F09CFB2046FFF7D9FE0123E6
:1038D000237005F055FC06F063FC104B1A689A4201
:1038E00004D0996993688A689A4208D3002383F3C5
:1038F0001188019A2B689A4209D103B030BD08485B
:1039000005F07EFBF2E7044805F07AFBCFE7FEF70F
:1039100067FD00BF000B0020E0540108F06F00209D
:10392000C05401080000000000000000000000007A
:1039300030B51C4D83B02B680193044658B3202347
:1039400083F3118806F014FC05F0FAFB2378022BB0
:1039500002D0154805F054FB2046FFF7C9FE0423AA
:10396000237005F00DFC06F01BFC104B1A689A4200
:1039700004D0996993688A689A4208D3002383F334
:103980001188019A2B689A4209D103B030BD0848CA
:1039900005F036FBF2E7044805F032FBCFE7FEF70F
:1039A0001FFD00BF000B0020F0540108F06F002045
:1039B000C0540108000000000000000000000000EA
:1039C00030B51C4D83B02B680193044658B32023B7
:1039D00083F3118806F0CCFB05F0B2FB2378022BB1
:1039E00002D0154805F00CFB2046FFF7A9FE032383
:1039F000237005F0C5FB06F0D3FB104B1A689A4202
:103A000004D0996993688A689A4208D3002383F3A3
:103A10001188019A2B689A4209D103B030BD084839
:103A200005F0EEFAF2E7044805F0EAFACFE7FEF710
:103A3000D7FC00BF000B002010550108F06F0020DC
:103A4000C054010800000000000000000000000059
:103A500000B5074B83B01A680192019A1B689A421D
:103A600004D103B05DF804EBFFF7EABBFEF7B8FC46
:103A7000000B00200000000000000000000000001B
:103A800000B50A4B83B01A680192012202700199B5
:103A90001A6800239142C0E9013305D10C3003B00C
:103AA0005DF804EB06F09CBCFEF79AFC000B0020CE
:103AB00070B51E4D82B02B6801930E46044670B35C
:103AC00069B3202383F3118806F052FB05F038FB1D
:103AD0002378013B012B02D9154805F091FA2046C5
:103AE0006660FFF7DDFB0223237005F049FB06F05B
:103AF00057FB104B1A689A4204D0996993688A68F8
:103B00009A4208D3002383F31188019A2B689A42C2
:103B100009D102B070BD084805F072FAF2E7044816
:103B200005F06EFACDE7FEF75BFC00BF000B00204E
:103B300030550108F06F00202055010800000000FA
:103B40002DE9F041214D82B02C6801940E4690463B
:103B50001F46044600B171BB1D4805F051FA2023F1
:103B600083F3118806F004FB05F0EAFA2378022BB0
:103B700002D0174805F044FA03203B46424631463E
:103B800020702046FFF7F4FB05F0FAFA06F008FB78
:103B9000104B1A689A4204D0996993688A689A42CD
:103BA0000ED3002383F31188019A2B689A420BD11C
:103BB00002B0BDE8F081002BCED0002ACFD1CBE7F8
:103BC000054805F01DFAECE7FEF70AFC000B0020A3
:103BD00040550108F06F002020550108000000004A
:103BE0002DE9F04F394A3A4B126883B00124019213
:103BF0001C70002963D04FF00008364CC246C34603
:103C0000C1464746C446434647F6FF7E1DE0AB45E6
:103C1000A8BFAB46024432F9026CB2F90450B44278
:103C2000B8BF3446B645A8BFB6464D4545DCA845A5
:103C3000A8BFA846B2F90220BA420EDC043392456E
:103C40009BB2A8BF924699420CD95D1C6A0030F91C
:103C500015506545DBDDAC46DCE704339BB2994289
:103C60001746F2D8A4EB0E04ACEB0B0CA7EB0A073B
:103C7000A9EB0808A4B21FFA8CFCBFB21FFA88F89F
:103C8000154A12491480019C0968144BA2F802C01D
:103C90009780B0F8F8C4B0F8FA64A2F80680B0F8DB
:103CA000FC54B0F8FE24A3F800C08C425E809D80D6
:103CB000DA8008D103B0BDE8F08FA946BAE788469C
:103CC0000F468C46DCE7FEF78BFB00BF000B0020A5
:103CD000A85000200080FFFFB4500020AC5000200E
:103CE00070B53F4B3F4C1A78236882B0012A01938C
:103CF00005D0019A23689A4270D102B070BD3A494A
:103D00003A4B4D6C45F480354D644E6A002546F4BF
:103D100080364E624D621D61DD60196A21F001013D
:103D20001962996921F003019961996941F00101D2
:103D30009961996921F0F0019961196A21F00A01EC
:103D40001962996921F00C019961996821F070015B
:103D50009960996841F050019960996821F4803127
:103D600021F007019960996841F00701996019688D
:103D700021F440711960DA629D625A61196A21F07A
:103D800010011962996921F440719961996921F0D2
:103D9000807121F4E0419961996941F4C0419961D0
:103DA000196A21F0A00119629A639A6942F40062CB
:103DB0009A611A6A22F480621A621A6A42F0110247
:103DC0001A621A6842F001021A6020B10090684637
:103DD00000F076F98DE7064B0093F8E7FEF700FB5D
:103DE0002C7D0020000B00200038024000400140E4
:103DF000E13B00080000000000000000000000009F
:103E000070B5114C82B0236801930E4615462023ED
:103E100083F3118806F0DCF905F0D2F90B4B0C485E
:103E2000C3E9006506F09CFA05F0EAF906F0E8F946
:103E3000002383F31188019A23689A4201D102B0CA
:103E400070BDFEF7CDFA00BF000B0020D06500204A
:103E5000BC50002000000000000000000000000036
:103E600070B5114C82B0236801930E46154620238D
:103E700083F3118806F0ACF905F0A2F90B4B0C485E
:103E8000C3E9006506F06CFA05F0BAF906F0B8F976
:103E9000002383F31188019A23689A4201D102B06A
:103EA00070BDFEF79DFA00BF000B0020B463002038
:103EB000BC500020000000000000000000000000D6
:103EC0002DE9F04F624B63499A69634B916185B06C
:103ED0001B6803935E4B9B6993F821305B0700F1ED
:103EE000AD805E4806F004FA5C4806F001FA584BD3
:103EF0009B6993F8212012F0040240F09F80584DF6
:103F000058482B6801680446406805EB830304EBBE
:103F1000810103F50279430001F10808019343D0C0
:103F2000DFF850B1504BDFF85CA1012018F81250B7
:103F300018F8006019F8121019F8004005F0550C37
:103F4000770806F0550613F80CC09E5D01F0550E7B
:103F50004CEA061649084FEA540C01F0550104F0EA
:103F600055040CF0550C6D0813F80EE0595C1C5DFF
:103F700013F80CC00BF8126005F0550507F0550753
:103F800041EA0C114EEA041E0AF812E05D5D0AF8DF
:103F90000010DF5D0199013245EA071591420BF8E7
:103FA000005000F10200C1D1304B31493148324D4F
:103FB0000422FCF75DFA314B314932480422FCF708
:103FC00057FA314B314932480422FCF751FA314B50
:103FD000314932480422FCF74BFADFF8D4C0286894
:103FE0009CF80070224A264900EBC71302F14006F4
:103FF00014881C8054885C804C889C80043231F882
:10400000044BDC80964203F10803F1D1092F11D152
:10401000234B00221B688CF800204FF42071984736
:104020002B68204A204993420B6006BF1F4B2B6030
:104030002A604FE701378CF800704BE7064B039A74
:104040001B689A4202D105B0BDE8F08FFEF7C8F9AF
:10405000F06F002060550108000B0020BC500020CC
:10406000D0650020B4630020080B00208C61002084
:104070004856002088560020880B0020F46100205C
:104080005C6200209C620020C06100204A56002033
:1040900089560020286200205E6200209D62002078
:1040A0009C630020885700208C0B0020885C002037
:1040B00088610020000000000000000000000000F7
:1040C0002DE9F04F494A0168494B116085B0002144
:1040D0000E461B684748039306F0AAF84FF4AF61F9
:1040E000454B009641224548454DDFF84891454CE7
:1040F000DFF844A1444F05F0DBFC444B444A186010
:10410000136BC5F804A043F480534FF002184FF42A
:104110007A5B13632846C5E90298A5F800B0FCF75E
:10412000EFF82046C4E901A9C4F80C80A4F800B057
:10413000FCF7E6F805F13400C5E90EA9C5F84080A2
:10414000A5F834B0FCF7DCF8324DC4F8408004F137
:104150003400C4E90EA9A4F834B0FCF7D1F8314614
:1041600040F20C4238460DF01BFFDFF8D0902A4A8F
:104170006E604FF400634FF080082E812A606B81DF
:10418000264CC5F80C80C7F80894FFF761FC294657
:104190002348244DFFF78CFC07F5027307F1080252
:1041A0004FF480711E48FFF7CBFC314620464FF498
:1041B00003720DF0F5FE1C4B1C4AC4F8089208343B
:1041C0001A611946C3E900641948C3E9028507F07A
:1041D0002FFB074B039A1B689A4205D1144805B080
:1041E000BDE8F04F07F06CBBFEF7FAF89C630020C7
:1041F000000B0020BC500020C13E0008D050002021
:104200008C610020F4610020D0650020C85000209F
:1042100000380240C0650020013E0008B463002061
:1042200074500020613E0008A06300202C030800A9
:104230002C7D0020000020410000FA45EFBEADDEDD
:1042400000B5064B83B01A680192019A1B689A4226
:1042500002D103B05DF804FBFEF7C2F8000B0020AA
:1042600000B5064B83B01A680192019A1B689A4206
:1042700002D103B05DF804FBFEF7B2F8000B00209A
:1042800010B5104C104B226882B0019201221A70B6
:10429000202383F3118805F09BFF04F091FF0B4866
:1042A00006F0BEFA04F0ACFF05F0AAFF002383F38A
:1042B0001188019A23689A4201D102B010BDFEF71D
:1042C0008FF800BF000B0020E8690020900B002051
:1042D00030B50E4D0E4C2B6883B00193FFF758FAA2
:1042E000206808B10DF094FB4FF496400DF088FB68
:1042F00001992A682060B0FA80F35B099142C3F10A
:10430000000001D103B030BDFEF76AF8000B0020B9
:10431000E069002000000000000000000000000034
:1043200030B5174D174C2B78226885B0012B0392BE
:1043300020D000F0D5FB144B1B78ABB9B0F5964FED
:1043400015D8124A124B12681B6812490092024695
:104350001148FFF74DFA01232B700020039A2368C0
:104360009A420BD105B030BDB0F5165FE9D94FF0D8
:10437000FF30F3E70848FFF793FADAE7FEF730F883
:10438000DD690020000B0020DE690020E4690020C8
:10439000E069002070550108605000200000000016
:1043A00010B50B4C0B48236882B0019306F000F95E
:1043B000094806F0A5FA019A23689A4205D10548F2
:1043C00002B0BDE8104006F02BB9FEF709F800BFB7
:1043D000000B0020980B0020900B00200000000034
:1043E00030B5154D154C164B2268286883B00192E4
:1043F00001221A7008B10DF00BFB4FF416500DF0AE
:10440000FFFA286098B10F4D286808B10DF000FB45
:104410004FF416500DF0F4FAB0FA80F35B092860FF
:104420005842019A23689A4204D103B030BD4FF03C
:10443000FF30F6E7FDF7D4FFE0690020000B002015
:10444000DE690020E4690020000000000000000098
:1044500000B5074B07491A68087083B00192019AAA
:104460001B689A4202D103B05DF804FBFDF7B8FF68
:10447000000B0020DC6900200000000000000000AC
:1044800000B50D4A0D4B1278196883B0019142B105
:104490000B4AD26812681268120302D4094A1068E3
:1044A00001E0094A1068019A1B689A4202D103B0E0
:1044B0005DF804FBFDF794FFDE690020000B00208F
:1044C00060500020E4690020E06900200000000046
:1044D00000B50E4A0E4B1278196883B001914AB1AB
:1044E000019A1B689A420FD10A4803B05DF804EBA9
:1044F000FFF766BA019A1B689A4205D1054803B0D6
:104500005DF804EBFFF714BAFDF76AFFDC690020E1
:10451000000B0020605000200000000000000000A0
:1045200070B5274D82B02B68019306460122032106
:104530006E2000F065FB044630B1019A2B689A4268
:1045400020463AD102B070BD32464E216E2000F0B6
:1045500057FB04460028F0D1442E07D00246B7216D
:104560006E2000F04DFBB8B10446E6E70122B7210A
:104570006E2000F045FB0028F6D1224603216E2074
:1045800000F03EFB0028EFD1032211216E2000F045
:1045900037FB78B10446D0E7224603216E2000F0B5
:1045A0002FFB0028E0D10A2211216E2000F028FB09
:1045B0000028D9D1034B1E71BFE7FDF711FF00BFE3
:1045C000000B0020EC69002000000000000000004B
:1045D0002DE9F04F8FB0DFF80084DDF860C0D8F827
:1045E00000400D940CF1FF355C1EB3F5207F9DF863
:1045F00064909DF868B00C44154400F21282BCF53A
:10460000F07F00F20E82B1F5207F0E4600F212829A
:10461000B2F5F07F174600F21082A14280F00482CA
:10462000B4F5207F00F20082AA4280F00082B5F546
:10463000F07F00F2FC81B9F1400F824600F0B081BA
:10464000B9F1800F23D0B9F1200F00F09C81002335
:10465000CDE90033BBF1400F2FD0BBF1800F00F04C
:10466000CB81BBF1200F00F0B9810023CDE90233EB
:10467000002203216E2000F0C3FAA0B30D9AD8F8EF
:1046800000309A4240F0E2810FB0BDE8F08F9A0707
:1046900040F0D681CC4A8C085900661CA2FB01016F
:1046A000A2FB030204EB930406EBD2030093BBF1DD
:1046B000400F06EBD1030193CFD11CF0010F40F066
:1046C000C281C14B7D084FEA4C026F1CA3FB021252
:1046D000A3FB0C1307EB9303029307EB920305EB89
:1046E0005C050393C4E702465B216E2000F088FA64
:1046F0000028C3D15046FFF713FF0028BED1024661
:1047000003216E2000F07CFA0028B7D1C6F30723FE
:104710001A4608216E20049300F072FA0028ADD1E9
:10472000F3B21A4609216E20059300F069FA0028B9
:10473000A4D1C7F307231A460A216E20069300F07E
:104740005FFA00289AD1FBB21A460B216E2007931C
:1047500000F056FA002891D1C4F307231A460C2121
:104760006E20089300F04CFA002887D1E3B21A4675
:104770000D216E20099300F043FA00287FF47EAFEC
:10478000C5F307231A460E216E200A9300F038FA6B
:1047900000287FF473AFEBB21A460F216E200B9303
:1047A00000F02EFA00287FF469AF049A35216E20BC
:1047B00000F026FA00287FF461AF059A36216E20BA
:1047C00000F01EFA00287FF459AF089A37216E20B6
:1047D00000F016FA00287FF451AF099A38216E20B4
:1047E00000F00EFA00287FF449AF069A39216E20B6
:1047F00000F006FA00287FF441AF079A3A216E20B4
:1048000000F0FEF900287FF439AF0A9A3B216E20B0
:1048100000F0F6F900287FF431AF0B9A3C216E20AE
:1048200000F0EEF900287FF429AF009B3D21C3F38F
:1048300007226E2000F0E4F900287FF41FAF9DF8F6
:1048400000203E216E2000F0DBF900287FF416AF37
:10485000019B3F21C3F307226E2000F0D1F900280D
:104860007FF40CAF9DF8042040216E2000F0C8F9C1
:1048700000287FF403AF029B4121C3F307226E207F
:1048800000F0BEF900287FF4F9AE9DF8082042211F
:104890006E2000F0B5F900287FF4F0AE039B4321B1
:1048A000C3F307226E2000F0ABF900287FF4E6AED8
:1048B0009DF80C2044216E2000F0A2F900287FF41E
:1048C000DDAE012203216E2000F09AF900287FF46A
:1048D000D5AE4A4693216E2000F092F900287FF46D
:1048E000CDAE5A4694216E2000F08AF900287FF45C
:1048F000C5AE012203216E2000F082F900287FF46A
:10490000BDAE0134A31B07EE103ADFED307AB8EEEE
:10491000477ABAF1440F77EEC77A00F09980B0EE8B
:10492000006AF2EE006AE7EE066A77EEA77AB0EE6A
:10493000667A67EE877ADFED266A87EEA67AFCEE66
:10494000C77ACDED007A009B9521C3F307226E2034
:1049500000F056F900287FF491AE9DF800209621D2
:104960006E2000F04DF900287FF488AE194B013518
:10497000EF1BA41B5F801C8083F804A083F80590C4
:1049800083F806B07AE610495A00A1FB030306EB50
:104990005303A1FB0212009306EB5203019359E665
:1049A000D9074DD4084A74085900661CA2FB0101BE
:1049B000A2FB030204EB530406EB9203009306EB05
:1049C0009103019346E600BFABAAAAAA00002244C5
:1049D0000000A344EC690020000B0020244A4FEAA9
:1049E0004C03A2FB0C1CA2FB032307EB530307EBB6
:1049F0005C02029203933BE61CF0030F23D11C4B95
:104A0000BD084FEA4C026F1CA3FB0212A3FB0C1360
:104A100007EBD303029307EBD20305EB9C0503934B
:104A200026E66FF0070029E66FF0030026E66FF038
:104A3000040023E66FF0010020E66FF002001DE69F
:104A40006FF005001AE66FF0060017E6FDF7C8FCE8
:104A5000F2EE006A37EE267ADFED066A67EE277A15
:104A600087EEA67AFCEEC77ACDED007A6BE700BF41
:104A7000ABAAAAAA00002444000000000000000025
:104A800010B5114C86B02368059300F081F80F49EA
:104A90000F4806F08DFF012200210D4807F020F895
:104AA00020237822CDE901330092A023B422F02103
:104AB0000220FFF78DFD059A23689A4201D106B0C6
:104AC00010BDFDF78DFC00BF000B002080550108D4
:104AD000F87D002000000000000000000000000041
:104AE00010B50A4B0A4A1988146858881B7982B095
:104AF000442B019400FB01F00199136818BF40009A
:104B0000994201D102B010BDFDF76AFCEC690020AA
:104B1000000B00200000000000000000000000006A
:104B200070B5164E16483368154D82B005224FF405
:104B3000807101930AF05CF920246B6983F480731F
:104B40006B61012005F00CF8631E13F0FF04F4D133
:104B50004FF4807140F20622298309480AF048F98F
:104B6000019A33689A4206D10649074802B0BDE867
:104B7000704006F0D5BCFDF733FC00BF000B0020F1
:104B800000040240C0550108707A002000000000B7
:104B900000B50C4A0C4B1278196883B0012A0191B8
:104BA000019A1B6804D09A4209D103B05DF804FB56
:104BB0009A4204D103B05DF804EBFFF7B1BFFDF7F3
:104BC0000FFC00BF707A0020000B002000000000E6
:104BD00000B5084B83B01A680192019A1B689A428B
:104BE00005D1054803B05DF804EB06F0E1BCFDF724
:104BF000F7FB00BF000B0020707A002000000000CF
:104C0000F0B5214C214E89B0336807930746002543
:104C100020468DF818108DF819208DF8145006F0E4
:104C200097FD2378012B0CD0042205AB019502924D
:104C300000933946022306AA204606F019FD0546D0
:104C400048B9114806F0A4FD0020079A33689A423B
:104C500017D109B0F0BD204606F0F2FC23780C4ACB
:104C6000052B106004D0084806F092FD68B2ECE70E
:104C7000204606F09DFC2378012BF4D1FFF750FF6E
:104C8000F1E7FDF7ADFB00BF707A0020000B0020BC
:104C9000F469002000000000000000000000000097
:104CA00070B5294D82B02B6801930E46032841D878
:104CB000DFE800F01A120A02012922D9234A5369B7
:104CC00083F40063536116E0012926D91F4A536912
:104CD00083F4806353610EE0012918D91B4A53699C
:104CE00083F04003536106E001291CD9174A536938
:104CF00083F020035361019A2B689A4218D102B0C5
:104D000070BD124B4FF4006229B15A83F3E70F4B89
:104D100040220029F9D11A83EDE70C4B4FF4806251
:104D20000029F8D0F1E7094B20220029F3D0ECE765
:104D3000FDF756FB0024E0B231460134FFF7B0FF27
:104D4000042CF8D1D7E700BF000B0020000C024074
:104D500000B50D4B83B01A68019201280BD90B499D
:104D60004A6982F004024A61019A1B689A4209D199
:104D700003B05DF804FB054A042108B95183F3E749
:104D80001183F1E7FDF72CFB000B0020000402402B
:104D900000B50E4B83B01A68019201280BD90C495B
:104DA0004A6982F480424A61019A1B689A420AD198
:104DB00003B05DF804FB064A4FF4804108B9518303
:104DC000F2E71183F0E7FDF70BFB00BF000B0020BB
:104DD000000C024000000000000000000000000085
:104DE0002DE9F043254E83B034680194042A9DF8E0
:104DF0002890144605460F46984639D9B9F1000F58
:104E000014BF00224FF08052640002EB0863013CA3
:104E10001C4405F00F0527F01F07202383F311889A
:104E200005F0A6F93D4304F08BF9154B1035DD6014
:104E30001C6104F0A5F905F0B3F9124B1A689A4207
:104E400004D0996993688A689A420DD3002383F34A
:104E50001188BFF36F8FBFF34F8F019A33689A4267
:104E60000AD103B0BDE8F083074804F0C9F8EDE7C4
:104E7000064804F0C5F8C1E7FDF7B2FA000B0020C0
:104E800090ED00E0F06F0020505601083056010808
:104E900030B5224D224C2B68224A85B003936368BB
:104EA00043F004036360536A43F480335362202366
:104EB00083F3118805F05CF904F042F917221A4BCC
:104EC000E260236104F05CF905F06AF9174B1A6897
:104ED0009A4204D0996993688A689A4218D300204C
:104EE00080F31188BFF36F8FBFF34F8F03231D2211
:104EF00000904FF00051FFF773FF094A536843F0E9
:104F000001035360039A2B689A4205D105B030BD66
:104F1000074804F075F8E2E7FDF762FA000B00209D
:104F200090ED00E000ED00E009000010F06F0020BF
:104F300050560108000000000000000000000000C2
:104F400070B51A4D1A4C1B4E0FCD0FC49EB02A6877
:104F5000336822801D93EFF30981682203A8FCF7D0
:104F6000DFFE154B9D6AAA0714D4EB0708D5124B38
:104F700008995B6B114A00910D4880210DF060F893
:104F80001D9A33689A420FD109481EB0BDE870409F
:104F900004F036B8099A5B6B0092A4F11000084A3D
:104FA00080210DF04DF8E0E7FDF71AFA14560108DC
:104FB000F8690020000B002000ED00E0F05501082A
:104FC000D0550108000000000000000000000000B3
:104FD00000B51F4B0278196883B00191E2B11D4AF8
:104FE0004FF4005111834278EAB11A4A4FF48051CC
:104FF00011838278F2B1174A4FF480411183C2784D
:10500000FAB9144A4FF400415183019A1B689A423D
:105010001CD103B05DF804FB0E4A4FF400515183DC
:105020004278002AE1D10B4A4FF4805151838278B3
:10503000002AE0D1074A4FF480415183C278002A08
:10504000DFD0044A4FF400411183DEE7FDF7C8F9D1
:10505000000B0020001002400000000000000000D3
:1050600000B51F4B0278196883B00191E2B11D4A67
:105070004FF4007111834278EAB11A4A4FF48071FB
:1050800011838278F2B1174A4FF400611183C2781C
:10509000FAB9144A4FF480615183019A1B689A420D
:1050A0001CD103B05DF804FB0E4A4FF4007151832C
:1050B0004278002AE1D10B4A4FF480715183827803
:1050C000002AE0D1074A4FF400615183C278002AD8
:1050D000DFD0044A4FF480611183DEE7FDF780F9E9
:1050E000000B002000100240000000000000000043
:1050F00030B50C4A0C4B116883B04FF40055019148
:105100004FF480544FF400414FF480405D835C8342
:105110005883598301991368994201D103B030BD76
:10512000FDF75EF9000B00200010024000000000B7
:1051300030B50C4A0C4B116883B04FF400750191E7
:105140004FF480744FF480614FF400605D835C83A2
:105150005883598301991368994201D103B030BD36
:10516000FDF73EF9000B0020001002400000000097
:1051700010B50B4C0B48236882B099220021019393
:1051800006F0AEFC019A23689A4206D10548002138
:1051900002B0BDE8104006F08BBDFDF721F900BF5D
:1051A000000B0020C07D0020000000000000000077
:1051B00010B50B4C0B48236882B099220021019353
:1051C00006F08EFC019A23689A4206D10548002118
:1051D00002B0BDE8104006F06BBDFDF701F900BF5D
:1051E000000B0020DC7D002000000000000000001B
:1051F00000B5084B83B01A680192019A1B689A4265
:1052000006D10548002103B05DF804EB06F0B8BCF8
:10521000FDF7E6F8000B0020C07D00200000000034
:1052200000B5084B83B01A680192019A1B689A4234
:1052300006D10548002103B05DF804EB06F0A0BCE0
:10524000FDF7CEF8000B0020DC7D00200000000000
:1052500070B51A4C1A4E2378326882B0022B019234
:10526000A26811D165781748013505F0070500EBF4
:105270008500904763686570013B6360019A3368FD
:105280009A4219D102B070BD012B08D00199336840
:10529000994211D10C4802B0BDE8704010476578C2
:1052A0000848013D05F0070500EB8500904763685D
:1052B000657001336360E1E7FDF792F8906A0020C2
:1052C000000B0020F0560108E05601080000000025
:1052D00070B51A4C1A4E2378326882B0012B0192B5
:1052E000A26811D165781748013505F0070500EB74
:1052F000850090476368657001336360019A336885
:105300009A4219D102B070BD022B08D001993368BE
:10531000994211D10C4802B0BDE870401047657841
:105320000848013D05F0070500EB850090476368DC
:105330006570013B6360E1E7FDF752F8786A002091
:10534000000B0020F0560108E056010800000000A4
:1053500030B51F4D85B02B68039340F24C43994202
:10536000044626DCA3F69803994211DB4B00002B80
:1053700029D10370036998474FF47A71039A2B6817
:105380009A421ED1606905B0BDE8304006F060BBAE
:10539000104B02225B42227040F2892293420E4956
:1053A00091FBF3F189B207DC0191E3689847019919
:1053B000E4E7012303702D210191236998470199A6
:1053C000DCE7FDF70DF8E4DD01220270E4E700BF41
:1053D000000B002068F7FFFFA0860100000000001E
:1053E00000B5084B83B01A680192019A1B689A4273
:1053F00006D10146044803B05DF804EBFFF7A8BFEF
:10540000FCF7EEFF000B0020786A0020000000008F
:1054100000B5084B83B01A680192019A1B689A4242
:1054200006D10146044803B05DF804EBFFF790BFD6
:10543000FCF7D6FF000B0020906A0020000000005F
:1054400070B51D4E1D4A1E4B30681E491E4C9160A2
:1054500082B00021D46001901C4C1D481D4D9D6000
:10546000117051705160106154611B481B4A1C4DF2
:10547000D8601C48197059705960C3E90425FFF7BA
:10548000A7FD1848FFF7ECFD1749204606F090FAF3
:10549000204606F0C5FB2846144906F089FA019A11
:1054A00033689A4205D1284602B0BDE8704006F044
:1054B000B7BBFCF795FF00BF000B0020906A0020EF
:1054C000786A0020D14F000871510008C07D00208B
:1054D000F151000861500008B15100082152000844
:1054E000DC7D0020E0560108A05601086056010846
:1054F0000A490B4B09680B4A82B0202001914021D8
:1055000058834FF4806559834FF400644FF4804012
:1055100004215D835C8358835183FEE7000B0020E8
:10552000000C0240000402400000000000000000E7
:1055300000B5084B83B01A680192019A1B689A4221
:1055400005D1054803B05DF804EB05F031B8FCF770
:1055500047FF00BF000B0020AC0B00200000000044
:1055600000B5084B83B01A680192019A1B689A42F1
:1055700005D1054803B05DF804EB05F051B8FCF720
:105580002FFF00BF000B0020AC0B0020000000002C
:1055900070B50D4C82B0236801930D1E06460DDDDB
:1055A000284605F0D5FC18B90C2333604FF0FF30C6
:1055B000019A23689A4205D102B070BD034803F0F6
:1055C0001FFDEDE7FCF70CFF000B00201057010852
:1055D00000B5064B83B01A680192019A1B689A4283
:1055E00002D103B05DF804FBFCF7FAFE000B0020CB
:1055F00000B5074B83B01A680192019A1B689A4262
:1056000004D103B05DF804EB03F03AB8FCF7E8FE10
:10561000000B00200000000000000000000000005F
:1056200010B50C4C82B02368019315290CD80122C7
:10563000094B8A4013403BB101740020019A236852
:105640009A4204D102B010BD6FF00700F6E7FCF7F4
:10565000C7FE00BF000B00200B0030000000000060
:1056600000B5074B83B01A680192019A1B689A42F1
:1056700004D103B05DF804EB02F0CABAFCF7B0FE47
:10568000000B0020000000000000000000000000EF
:1056900010B5074B82B01C680194019C1B689C42AA
:1056A00004D102B0BDE8104002F072B9FCF798FED8
:1056B000000B0020000000000000000000000000BF
:1056C00010B5074B82B01C680194019C1B689C427A
:1056D00004D102B0BDE8104002F072BAFCF780FEBF
:1056E000000B00200000000000000000000000008F
:1056F0002DE9F04182B002AB0024364D03F8054D90
:1057000090462A6801920F461A460121064603F088
:10571000DFF90446E0B9B8F1010F9DF803301FD05E
:10572000042F53D8DFE807F0322D0328230003F0BD
:10573000FB07BB420CD03A460121304603F068F922
:10574000044628B986F830717169304602F060FA73
:10575000019A2B689A42204636D102B0BDE8F0810A
:10576000042F33D8DFE807F02B26211C170003F0A5
:105770007F07BB42DFD1EBE703F0BF07BB42DAD1C3
:10578000E6E703F0D707BB42D5D1E1E703F0EF0727
:10579000BB42D0D1DCE743F08007BB42CBD1D7E797
:1057A00043F04007BB42C6D1D2E743F00407BB42F7
:1057B000C1D1CDE743F02807BB42BCD1C8E743F0D5
:1057C0001007BB42B7D1C3E7FCF70AFE6FF0030432
:1057D000BEE700BF000B002000000000000000003A
:1057E00030B583B002AA114D002302F8053D0C46E6
:1057F0002B680193012103F06BF978B99DF8033010
:10580000C3F30011C3F3C0022170A270C3F380017F
:10581000C3F38012DB096170E2702371019A2B6877
:105820009A4201D103B030BDFCF7DAFD000B002035
:1058300070B5134C84B00E46236803930DF1060235
:10584000F821054603F05CF928B1039A23689A42CF
:1058500013D104B070BD02AA0421284603F068F9F0
:105860000028F2D1BDF8062012B93368AB61ECE72D
:10587000029BB3FBF2F33360F8E7FCF7B1FD00BF26
:10588000000B0020000000000000000000000000ED
:1058900000B5084B027F18680A7083B00190019A26
:1058A0001B689A4203D1002003B05DF804FBFCF7AB
:1058B00097FD00BF000B002000000000000000006A
:1058C00070B5104C82B00E46236801930DF10202B0
:1058D0002021054603F014F938B9BDF8023053B160
:1058E000DB00012233602B622A77019A23689A42F7
:1058F00005D102B070BD2B6A33602877F5E7FCF75D
:105900006FFD00BF000B0020000000000000000041
:10591000F0B5294F83B03B680193052947D80E465F
:105920000446154662B100EB81020023526B012050
:10593000711E04292FD8DFE801F02522130631005B
:1059400010460123F4E75B00FE226021204603F0AD
:105950008FF870B9344445B9284684F8285008E0D7
:1059600084F82B003444002DF6D0012384F828302D
:105970000020019A3B689A421CD103B0F0BD84F824
:105980002A00EFE7C2F34F224421204603F058F8E3
:105990000028DFD0EDE784F82800E3E71B01EF22C1
:1059A0006021204603F064F80028D3D0E1E76FF0CF
:1059B0000300DEE7FCF714FD000B002000000000F0
:1059C00010B50C4B82B01C68019405290AD801441B
:1059D000002091F828101170019A1B689A4206D194
:1059E00002B010BD002111706FF00300F4E7FCF766
:1059F000F7FC00BF000B00200000000000000000CA
:105A0000F0B543181C4E83B0044693F82800336861
:105A100001930D46174630B105292AD8DFE801F079
:105A2000141E1A1C0C0C04EB81046263019A336887
:105A30009A421CD103B0F0BDC2F34F22642120462C
:105A400002F0FEFF08B1F1E7626304EB8504002079
:105A50006763EBE7E263F8E72264F6E7C2F34F22FD
:105A60004421204602F0ECFF0028EED0DEE7FCF7F0
:105A7000B7FC6FF00300D9E7000B00200000000026
:105A800070B5204C82B0236801930546164605295F
:105A900034D8DFE801F0030E0C1E2020436B336086
:105AA0000020019A23689A4226D102B070BDC36BD0
:105AB000F5E70DF10202442103F022F80028F0D1AD
:105AC000BDF802305A028BB9AB6B336085F8290000
:105AD000E7E7036CE3E70DF10202642103F010F83D
